:100000000C94A4010C94D5010C94D5010C94D50149
:100010000C94D5010C94D5010C94D5010C94D50108
:100020000C94D5010C94D5010C94D5010C94D501F8
:100030000C94D5010C94D5010C94D5010C94D501E8
:100040000C94D5010C94D5010C94D5010C94D501D8
:100050000C94D5010C94D5010C94D5010C94E51B9E
:100060000C94D5010C94591C0C942F1C0C94D501A4
:100070000C94D5010C94D5010C94D5010C94D501A8
:100080000C94D5010C94D5010C94D5010C94D50198
:100090000C94D5010C94D5010C94D5010C948F1CB3
:1000A0000C94D5010C94D5010C94D5010C94D50178
:1000B0000C94D5010C94D5010C94D5010C94D50168
:1000C0000C94D5010C94D5010C94D5010C94D50158
:1000D0000C94D5010C94D5010C94D5010C94D50148
:1000E0000C94D5010C94060F0C94D50A0C94E305DE
:1000F0000C9469020C942D070C94BF0A0C94300ADE
:100100000C9472020C94690A0C9434020C948324AB
:100110000C94A00A0C94CF050C949C020C94C60A73
:100120000C9465020C941F0F0C943B140C948A02DF
:100130000C94460A0C943C070C94E7170C94BC17DB
:100140000C94F8130C94DD0A0C9492020C9483071F
:100150000C94E3130C947C020C94B31D0C94BB110F
:100160000C94D20A0C94A40A0C9421160C949305B6
:100170000C94B9080C9456070C9497020C94520AEC
:100180000C9491170C9415170C94A11B0C948E02CF
:100190000C94161B0C948B050C94F1050C94F7161B
:1001A0000C9429060C94F7150C94010C0C94E31B89
:1001B0000C9457020C9484020C9438020C9498020C
:1001C0000C94470A0C946C020C94D00A0C94CA113B
:1001D0000C945D020C9476060C94A80A0C94800290
:1001E0000C94A31A0C947A0F0C94C0050C943B1633
:1001F0000C94B80A0C9461020C94FE140C948A05B9
:100200000C94410F0C944F070C94C20A0C94C30C2D
:100210000C9499080C9401140C94D3120C94D815D6
:100220000C947602000020002300260029002C00F8
:100230002F00320000010000030106010901000047
:100240000A0B02090C0D0E08070304010000000050
:10025000000000000000000000000000000000009E
:10026000000000000000000000001211100000005B
:10027000000000000000000000000000000000007E
:100280000000000000002200250028002B002E00A6
:100290003100340002010000050108010B010000DB
:1002A0002100240027002A002D0030003300010126
:1002B0000000040107010A010102102020080810B3
:1002C00020401020408002010201080402010102C6
:1002D000040810204080804020100804020180049F
:1002E00002018040201008040201080402010102FA
:1002F00004081020408001020408102040800505F9
:100300000505070508080808020202020A0A08088B
:1003100004040404010101010101010103030303B9
:1003200003030303040707070C0C0C0C0C0C0C0C48
:100330000202020206060606060606060B0B0B0B59
:100340000B0B0B0BB31D832411241FBECFEFD1E287
:10035000DEBFCDBF00E00CBF13E0A0E0B2E0E6E3FB
:10036000F1E500E00BBF02C007900D92AA39B1077A
:10037000D9F725E0AAE9B3E001C01D92A43EB20777
:10038000E1F711E0C3EAD1E000E006C021970109DE
:10039000802FFE010E942B27C23AD10780E0080778
:1003A000A9F70E94A81E0C9489280C940000CF93F2
:1003B000DF93EC01FA013296E60FF71FDC019D0195
:1003C0002C1B3D0BCF01861B970B4D91442311F045
:1003D0004193F5CFAC01421B530B640F751FFB011A
:1003E0003297308361507109FB012083DF91CF91F7
:1003F00008958091A0059091A105009711F480E0E7
:100400002FC0DC01ED91FC910688F789E02D19954C
:100410002091C3053091C40581111FC0232B79F7AA
:100420008DEF9FEF9093C4058093C3058091A00545
:100430009091A105DC01ED91FC910680F781E02D02
:1004400019958091A0059091A105DC01ED91FC9199
:100450000488F589E02D1995D2CF81E0232B79F618
:1004600008958CBD9DBD0895FC01818D928D0895E8
:1004700008958150823108F05AC0E82FF0E08827B3
:10048000EB5BFD4F8F4F0C942B27650269025702DF
:100490005D02610297026C02720276027C028002A7
:1004A00084028A028E029702920298029C02809134
:1004B00080008F77809380000895809180008F7DE9
:1004C000F9CF80918000877FF5CF84B58F7784BD89
:1004D000089584B58F7DFBCF8091B0008F77809396
:1004E000B00008958091B0008F7DF9CF8091900089
:1004F0008F77809390000895809190008F7DF9CF41
:1005000080919000877FF5CF8091A0008F778093B6
:10051000A00008958091A0008F7DF9CF8091A00068
:10052000877FF5CF809120018F77809320010895F8
:10053000809120018F7DF9CF80912001877FF5CFB9
:10054000CF93DF93282F30E0F901E25CFD4F8491D7
:10055000F901E854FD4FD491F901E250FD4FC491E7
:10056000CC23A1F081110E943902EC2FF0E0EE0FB4
:10057000FF1FEC5DFD4FA591B491EC91ED2381E05F
:1005800090E009F480E0DF91CF91089580E090E061
:10059000FACF1F93CF93DF93282F30E0F901E25C6D
:1005A000FD4F8491F901E854FD4FD491F901E250D7
:1005B000FD4FC491CC23A9F0162F81110E9439025E
:1005C000EC2FF0E0EE0FFF1FEC57FD4FA591B4911B
:1005D0008FB7F894EC91111108C0D095DE23DC930D
:1005E0008FBFDF91CF911F910895DE2BF8CFCF936E
:1005F000DF9390E0FC01E854FD4F249182509D4F21
:10060000FC0184918823D1F090E0880F991FFC01B0
:10061000E256FD4FA591B491FC01EC57FD4FC591F9
:10062000D49161110EC09FB7F8948C91E22FE095A0
:100630008E238C932881E223E8839FBFDF91CF91A3
:1006400008958FB7F894EC91E22BEC938FBFF6CF1F
:100650003FB7F89480915A0490915B04A0915C0498
:10066000B0915D0426B5A89B05C02F3F19F00196F7
:10067000A11DB11D3FBFBA2FA92F982F8827BC01FC
:10068000CD01620F711D811D911D42E0660F771F24
:10069000881F991F4A95D1F708958F929F92AF9224
:1006A000BF92CF92DF92EF92FF924B015C010E94CA
:1006B00028036B017C010E9428036C197D098E09B7
:1006C0009F09683E734081059105A8F321E0821AD5
:1006D0009108A108B10888EEC80E83E0D81EE11C7D
:1006E000F11C81149104A104B10429F7FF90EF904B
:1006F000DF90CF90BF90AF909F908F9008952FB7CD
:10070000F894609156047091570480915804909128
:1007100059042FBF0895EF92FF920F931F93CF9329
:10072000DF9300D01F92CDB7DEB7FA0120E08E0133
:100730000F5F1F4F9E2F9F77EE0FEF2FEE1FFF0BC8
:10074000F195309709F09068D801A20FB11D9C93E4
:100750002F5F309779F730E0FB01E21BF30B8483C6
:10076000FB01E21BF30B3596D801CD01801B910BE9
:10077000821793071CF48D918193F7CF2F5F3F4F22
:100780008091A0059091A1058901040F151F621B9E
:10079000730B6B5F7F4FDC01ED91FC910280F38165
:1007A000E02DA80119957C010E947F036093AC05A0
:1007B0007093AD058093AE059093AF0581E00E1563
:1007C0001F0509F080E00F900F900F900F90DF91C0
:1007D000CF911F910F91FF90EF9008958F929F926C
:1007E000AF92BF92CF92DF92EF92FF92CF93DF93BF
:1007F000EC010E947F034B015C018091A005909168
:10080000A105DC01ED91FC910084F185E02D1995A5
:10081000892BB9F40E947F036B017C01C818D908A9
:10082000EA08FB082091A8053091A905A8EEB3E0DD
:100830000E94E024C616D706E806F906F0F280E02A
:100840000DC08091A0059091A105DC01ED91FC9176
:100850000284F385E02D1995888381E0DF91CF91A3
:10086000FF90EF90DF90CF90BF90AF909F908F90D0
:1008700008952F923F924F925F926F927F928F9244
:100880009F92AF92BF92CF92DF92EF92FF920F931F
:100890001F93CF93DF9300D000D000D01F92CDB72D
:1008A000DEB71C018091A2059091A3050E94EE0382
:1008B00081111CC060E070E0CB012A960FB6F8945D
:1008C000DEBF0FBECDBFDF91CF911F910F91FF9083
:1008D000EF90DF90CF90BF90AF909F908F907F90E0
:1008E0006F905F904F903F902F900895E091A205F8
:1008F000F091A305D0801982EE24E394F12C812C91
:10090000912C5401412C512C32014394CE0101967B
:100910000E94EE03882371F287010F5F1F4F8981C8
:10092000E091A205F091A305EE0DFF1D8083E98102
:10093000AE2FAF77B0E0A30192010E94B324860EE0
:10094000971EA81EB91E37E0440C551C661C771C68
:100950003A95D1F7E7FD3FC0BD2DB07FBE838FEF45
:10096000800FF1018083B03309F04CC08091A20563
:100970009091A305800F911F0E94EE03882309F434
:1009800099CF2091A2053091A305C7010296820F4D
:10099000931F0E94EE03882309F48CCF0E5F1F4F34
:1009A000E091A205F091A305D1018C91DF01A80F80
:1009B000B11D11968C91119790E0982F882712966F
:1009C0002C91820F911D208121FD0296F2E0E0E042
:1009D00030E020E01DC078010530110509F096CF08
:1009E0008FEF9FEF9093C4058093C3058091A0057E
:1009F0009091A105DC01ED91FC910488F589E02D31
:100A0000199558CFF0E0E0E030E020E090E080E0A1
:100A100070E060E0CF2EDE2EE32EF22E28013B01A7
:100A20004C185D086E087F084A825B826C827D826A
:100A30002C01712C612C4F82588669867A864A80F7
:100A40005B806C807D804C0C5D1C6E1C7F1CC81410
:100A5000D904EA04FB0408F046C0CE0101960E94C6
:100A6000EE03882309F426CF8091C1059091C20539
:100A7000009711F12E812033F9F4D1012C914EEF22
:100A80005FEF6FEF7FEF421B510961097109440E5F
:100A9000551E661E771E2F81388549855A85241577
:100AA00035054605570540F4DC01ED91FC910190B8
:100AB000F081E02D698119958091A4059091A5059B
:100AC0000817190750F48981E091A205F091A30558
:100AD000E00FF11F80830F5F1F4FBFEFCB1ADB0AC0
:100AE000EB0AFB0AACCF8091C1059091C205892B1E
:100AF00069F48091A4059091A505B0E0A0E084156B
:100B00009505A605B70510F410E000E0B80190E0E7
:100B100080E0D3CE08950895DC01ED91FC91019021
:100B2000F081E02D1994AF92BF92CF92DF92EF92B5
:100B3000FF920F931F93CF93DF936C017B018B0187
:100B4000040F151FEB015E01AE18BF08C017D107D7
:100B500059F06991D601ED91FC910190F081E02D61
:100B6000C6011995892B79F7C501DF91CF911F91A6
:100B70000F91FF90EF90DF90CF90BF90AF900895CE
:100B8000FC01538D448D252F30E0842F90E0821B93
:100B9000930B541710F0CF96089501970895FC0118
:100BA000918D828D981761F0A28DAE0FBF2FB11D70
:100BB0005D968C91928D9F5F9F73928F90E00895C8
:100BC0008FEF9FEF0895FC01918D828D981731F082
:100BD000828DE80FF11D858D90E008958FEF9FEFD6
:100BE0000895FC01918D228D892F90E0805C9F4FAC
:100BF000821B91098F73992708958DE994E00E94D3
:100C0000F10521E0892B09F420E0822F0895FC01F1
:100C1000A48DA80FB92FB11DA35ABF4F2C91848D5D
:100C200090E001968F739927848FA689B7892C93BA
:100C3000A089B1898C91837080648C93938D848D0D
:100C4000981306C00288F389E02D80818F7D808310
:100C50000895EF92FF920F931F93CF93DF93EC01D0
:100C600081E0888F9B8D8C8D98131AC0E889F98953
:100C7000808185FF15C09FB7F894EE89FF89608356
:100C8000E889F98980818370806480839FBF81E0D7
:100C900090E0DF91CF911F910F91FF90EF90089519
:100CA000F62E0B8D10E00F5F1F4F0F731127E02EF4
:100CB0008C8D8E110CC00FB607FCFACFE889F9892C
:100CC000808185FFF5CFCE010E940706F1CFEB8D25
:100CD000EC0FFD2FF11DE35AFF4FF0829FB7F89400
:100CE0000B8FEA89FB8980818062CFCFCF93DF931E
:100CF000EC01888D8823B9F0AA89BB89E889F98934
:100D00008C9185FD03C0808186FD0DC00FB607FC68
:100D1000F7CF8C9185FFF2CF808185FFEDCFCE019B
:100D20000E940706E9CFDF91CF91089580E090E01F
:100D3000892B29F00E94FD0581110E94000080E0AE
:100D400090E0892B49F080E090E0892B29F00E9407
:100D5000000081110E94000080E090E0892B49F0A2
:100D600080E090E0892B29F00E94000081110E9410
:100D7000000080E090E0892B49F080E090E0892B32
:100D800029F00E94000081110C9400000895209128
:100D9000DB03260F3327331F21323105ECF420917A
:100DA0002404FC0190E080E0243069F082E00895A2
:100DB000A091DB032191AC0145545C4FA40FB52FEA
:100DC000B11D2C930196861798F38091DB03680F71
:100DD0006093DB0380E0089581E00895109224047D
:100DE00081E0809323041092FE0361E084E10E947D
:100DF000C90261E085E10E94C902E9EBF0E080816F
:100E00008E7F808380818D7F808388E48093B8008B
:100E100085E48093BC000895CF93DF9391E0909395
:100E2000BA038823B9F0C091B800D091BA0080917C
:100E3000BC008A7B8093BC0060E084E10E94C90210
:100E400060E085E10E94C9020E94EE06D093BA00DC
:100E5000C093B800DF91CF910895E0915304809141
:100E60005204E81730F4F0E0E656FC4F808190E041
:100E700008958FEF9FEF089590915304809152044D
:100E80002FEF3FEF981748F4E92FF0E0E656FC4FBC
:100E9000208130E09F5F90935304C90108958091B1
:100EA000520490915304891B990B0895CF92DF92BD
:100EB000EF92FF920F931F93CF93DF937C01CB01AF
:100EC0008A0120912A04222389F0EB016B01C40ED0
:100ED000D51ECC15DD0569F06991D701ED91FC9126
:100EE0000190F081E02DC7011995F3CF642F0E9486
:100EF000C706C801DF91CF911F910F91FF90EF902E
:100F0000DF90CF900895CF93DF931F92CDB7DEB7D8
:100F1000698320912A042223F9F020915004203281
:100F200058F021E030E0FC013383228390E080E040
:100F30000F90DF91CF91089580915104E82FF0E058
:100F4000E55DFB4F998190838F5F8093510480937F
:100F5000500481E090E0ECCF61E0CE0101960E9468
:100F6000C706F7CFCF92DF92EF92FF920F931F93B6
:100F7000CF93DF93FC01C48121E020932A04C09326
:100F80004B0410925104109250048385682B8AE31D
:100F900095E00E948307D0915004D13208F092C0AE
:100FA0000E9428036B017C0180912404811165C09B
:100FB00082E08093240481E0809323048FEF809368
:100FC000220410922104D0932004ABE2B4E0E0E0CC
:100FD000F4E080E0D81385C01092FF038091FF03F6
:100FE000CC0FC82BC093FF038091FE03813009F022
:100FF0007CC01092FE030E9428036B017C0180914B
:10100000FF038093BB008091260490912704A09158
:101010002804B0912904892B8A2B8B2B99F00E94EC
:101020002803009126041091270420912804309170
:1010300029046C197D098E099F09061717072807CF
:101040003907E0F18091BC0083FDD9CF85EC809316
:10105000BC000E9428036B017C0180912404823033
:1010600009F445C0809122048F3F61F180912204F0
:10107000803241F18091220425C080912604909114
:101080002704A0912804B0912904892B8A2B8B2B4B
:1010900009F48ACF0E9428030091260410912704A6
:1010A00020912804309129046C197D098E099F092B
:1010B000061717072807390708F076CF809125040F
:1010C0000E940C07109251041092500410922A04AE
:1010D000DF91CF911F910F91FF90EF90DF90CF9014
:1010E00008959D9191938F5F75CF85EEB0CF8091DC
:1010F000260490912704A0912804B0912904892BFB
:101100008A2B8B2B09F4A9CF0E9428030091260477
:101110001091270420912804309129046C197D092D
:101120008E099F09061717072807390708F095CF7A
:10113000C5CFEF92FF920F931F93CF93DF93EC01F4
:101140008B017A010E947F03688B798B8A8B9B8B42
:101150008C819D81DC01ED91FC910280F381E02D79
:10116000A701B801DF91CF911F910F91FF90EF90F0
:1011700019941F93CF93DF93EC01162F0E947F03E6
:10118000688B798B8A8B9B8B8C819D81DC01ED91A7
:10119000FC910190F081E02D612FDF91CF911F91A3
:1011A0001994FC0120812EBD9B012150310941F091
:1011B00051810DB407FEFDCF4EB55EBD4193F5CF15
:1011C00061507109860F971F0DB407FEFDCF2EB534
:1011D000FC0120830895E0919704F09198048081A8
:1011E00090919604892B80830895E0919704F09163
:1011F0009804908180919604809589238083089536
:101200008EBD00000DB407FEFDCF8EB50895AF92E0
:10121000BF92CF92DF92EF92FF920F931F93CF93E3
:10122000DF9300D000D01F921F92CDB7DEB78C01A4
:101230007B016A0180919A048333E1F45801A40E82
:10124000B51EA016B10609F46FC00E94F50880EF24
:101250000E940009812F0E940009802F0E9400092E
:101260000F5F1F4FF70181917F010E9400090E94CB
:10127000EB08E7CF5B01A40EB51E8433C1F40E94D6
:10128000F50819830A838D2D80688B83CC8264E0F6
:1012900070E0CE0101960E94D108AE14BF0409F49B
:1012A00041C0F70181917F010E940009F6CF0E94A1
:1012B000F5080F3F110509F028F419820A8384E02C
:1012C0008B830CC017FD17C019820A8333E0169573
:1012D00007953A95E1F7007E0C600B8386E0C8160F
:1012E000D104A0F5F701DE011496EA15FB0599F08B
:1012F00081918D93FACFC80126E0969587952A951E
:10130000E1F7807E19830A830115104C10F4846183
:10131000D7CF8C61D5CFB6016D5F7F4FCE010196DF
:101320000E94D1080E94EB08C60128960FB6F894D7
:10133000DEBF0FBECDBFDF91CF911F910F91FF9008
:10134000EF90DF90CF90BF90AF90089563E070E092
:10135000CE0101960E94D108F70181917F010E9480
:101360000009AE14BF04C1F7DDCFCF93DF931F9206
:10137000CDB7DEB7898341E050E0BE016F5F7F4F9C
:1013800090E080E00E9407090F90DF91CF910895CF
:1013900090E020919A04233339F40C96982F990FFA
:1013A000990F990F80E008954896F8CFDA01E091FF
:1013B0009B04F0E0FE2FEE27E60FF71F90E0982F3A
:1013C0008827A901BD018E0F9F1F0C940709CF9399
:1013D000DF931F921F92CDB7DEB779836A8322E035
:1013E00030E0AE014F5F5F4F60E170E00E94D609D0
:1013F0000F900F90DF91CF910895CF93DF931F92BD
:101400001F92CDB7DEB779836A8322E030E0AE0168
:101410004F5F5F4F64E070E00E94D6090F900F901D
:10142000DF91CF910895CF93DF931F92CDB7DEB7B1
:1014300020919B0430E0322F2227260F371F90E0A7
:10144000982F8827498341E050E0BE016F5F7F4FAE
:10145000820F931F0E9407090F90DF91CF9108958B
:10146000CF93DF931F92CDB7DEB76983DC01ED9197
:10147000FC910280F381E02D41E050E0BE016F5FFE
:101480007F4F19950F90DF91CF9108950895FC013A
:101490009485FB018485981303C081E0983008F09F
:1014A00080E00895CF93DF931F92CDB7DEB76983B5
:1014B000DC01ED91FC910280F381E02D41E050E0F0
:1014C000BE016F5F7F4F19950F90DF91CF91089507
:1014D0000895FF920F931F93CF93DF93EB01FC01CD
:1014E000178A168A2A81211109C02B81211106C071
:1014F0002C81211103C02D81222301F141155105B9
:10150000E9F08A01FC01F08C80E591E00E94310253
:10151000AE014E5F5F4F24E030E06CE070E08F2D55
:101520000E94D609B8018F2D0E94E70981E090E062
:10153000DF91CF911F910F91FF90089580E0F7CF39
:10154000FC01848595850895FC0184899589089519
:101550002FEB32E0FC0131832083FB01408951896C
:1015600062897389FC014283538364837583089580
:10157000DC01ED91FC91048CF58DE02D199490E047
:1015800080E00895FC01768765870895DC01ED9180
:10159000FC9102A0F3A1E02D199591E0892708950F
:1015A000862F089581E08627089521E0FC01848537
:1015B000883008F020E0822F08950895EF92FF927E
:1015C0000F931F93CF93DF930E947F0300918B05AE
:1015D00010918C0520918D0530918E056017710753
:1015E0008207930740F410928B0510928C0510929D
:1015F0008D0510928E0520918F05211119C0009143
:101600008B0510918C0520918D0530918E05601B06
:10161000710B820B930B603D77408105910540F47F
:1016200081E0DF91CF911F910F91FF90EF9008958E
:1016300010928F050E947F0360938B0570938C0539
:1016400080938D0590938E051092860510928505E6
:1016500010928405109283051092820561E08091BA
:1016600088050E94C9026AEF70E080E090E00E9465
:101670004D0361E0809188050E94F70260E080914F
:1016800088050E94C90264E170E080E090E00E9459
:101690004D03F89461E0809188050E94C9028BE9AE
:1016A00090E00197F1F760E0809188050E94F702D1
:1016B00010E081E0C0E0D0E0E82EF12C80918805B8
:1016C0000E94A0028E159F0519F4DF5FDF3FB1F77E
:1016D000809188050E94A002DF3FC1F0C43098F0DD
:1016E000C0FD11C0E12FE695E695E695F0E0EE57D6
:1016F000FA4F9081990F908320918A052D1710F44D
:10170000916090831F5FCF5FC535A9F6789418323A
:10171000B8F0409186052091820580918305280FBD
:101720003327331F80918405280F311D8091850553
:10173000820F932F911D99274817190609F470CF2E
:1017400080E06FCF0F931F93CF938C01C62F0E9421
:10175000B2076C2F6460C8010E94B2076C2F6B7FC8
:10176000C8010E94B20783EC90E00197F1F7CF9196
:101770001F910F9108950F931F93CF93DF938C01C7
:10178000D62FC42F607F642B0E94A20B80E1D89FCC
:10179000B00111246C2BC801DF91CF911F910F91E3
:1017A0000C94A20BCF93DF9300D000D01F921F9216
:1017B000CDB7DEB798E0EEE0F2E0DE0111960190E1
:1017C0000D929A95E1F790919805981708F48FEF8C
:1017D00090E0880F991F21E030E02C0F3D1F820F11
:1017E000931FFC016081606840E080E995E02896E5
:1017F0000FB6F894DEBF0FBECDBFDF91CF910C9432
:10180000BB0B41E00E94BB0B81E090E00895CF92BA
:10181000DF92EF92FF920F931F93CF93DF937C01A0
:10182000EB016091A4057091A505CE010E94892469
:101830008C010E94F901882309F440C0C090A405DE
:10184000D090A505B601C7010E9489249801295F9F
:101850003F4F820F931FC816D90680F16091A205F1
:101860007091A30545E050E0C7010E94D7017E01B9
:10187000E00EF11EFE01EC01CE1BDF0BAE014E0FA0
:101880005F1F6091A2057091A305EE15FF0531F071
:101890002191640F751FDB012C93F0CF05501109C6
:1018A000A801480F591F80E3DF91CF911F910F913D
:1018B000FF90EF90DF90CF900C948B0380E0DF914E
:1018C000CF911F910F91FF90EF90DF90CF900895EF
:1018D000FB0101900020E9F73197AF01461B570B40
:1018E000DC01ED91FC910280F381E02D19948F923F
:1018F0009F92AF92BF92EF92FF920F931F93CF935D
:10190000DF93CDB7DEB7A1970FB6F894DEBF0FBE59
:10191000CDBF7C01FA01CB0119A2223008F42AE0E4
:101920008E010F5D1F4F822E912CB12CA12CBF0177
:10193000A50194010E94BE24F901CA016A300CF588
:10194000605DD8016E938D01232B242B252B79F715
:1019500090E080E0109721F0BD01C7010E94680C63
:10196000A1960FB6F894DEBF0FBECDBFDF91CF9129
:101970001F910F91FF90EF90BF90AF909F908F902D
:101980000895695CDECF8F929F92AF92BF92CF9203
:10199000DF92EF92FF920F931F93CF93DF937C011F
:1019A0008B016C0182E0C80ED11C4701E5E08E0E70
:1019B000911CD0E0C0E0F60141916F0150E070E071
:1019C00060E02AE0C8010E94770C5C016EE2C80169
:1019D0000E948C058A0D9B1DC80FD91FC814D904FD
:1019E00051F7F701458150E070E060E02AE0C8015E
:1019F0000E94770C8C0F9D1FDF91CF911F910F914B
:101A0000FF90EF90DF90CF90BF90AF909F908F901E
:101A10000895CF93DF93BC018DE994E00E94680C98
:101A2000EC0161EC72E08DE994E00E94680C8C0F8F
:101A30009D1FDF91CF9108954F925F926F927F9299
:101A40008F929F92AF92BF92CF92DF92EF92FF92CE
:101A50000F931F93CF936B017C01742EAC019B01FC
:101A60000E94262764EC72E0811126C046015701CE
:101A7000E894B7F82FEF3FEF4FE75FE7C501B401F8
:101A80000E94262781110CC02FEF3FEF4FE75FE741
:101A9000C501B4010E945C2568EC72E0181664F080
:101AA0002FEF3FEF4FE75FE4C701B6010E94B42676
:101AB0001816ACF46CEC72E080E995E0CF911F91C0
:101AC0000F91FF90EF90DF90CF90BF90AF909F90DD
:101AD0008F907F906F905F904F900C94680C2FEFD9
:101AE0003FEF4FE75FECC701B6010E945C2587FD21
:101AF000E1CF20E030E0A901C701B6010E945C25DA
:101B000010E000E087FF0AC06DE280E995E00E94E6
:101B10008C058C01F7FAF094F7F8F094C0E060E0DF
:101B200070E080E09FE37C1641F020E030E040E28E
:101B300051E40E946125CF5FF6CFA70196010E9474
:101B4000F0242B013C010E94D3254B015C012AE0CB
:101B5000BC01A40180E995E00E94770C7C01E00EB5
:101B6000F11ECC23D1F1C501B4010E9402269B01D4
:101B7000AC01C301B2010E94EF244B015C016EE293
:101B800080E995E00E948C05E80EF91EC15028F10D
:101B900020E030E040E251E4C501B4010E94B926E2
:101BA0002B013C010E94D3254B01B12CA12C2AE032
:101BB000B501A40180E995E00E94770CE80EF91EBA
:101BC000C501B4010E9402269B01AC01C301B20110
:101BD0000E94EF244B015C01D9CFC701CF911F9127
:101BE0000F91FF90EF90DF90CF90BF90AF909F90BC
:101BF0008F907F906F905F904F90089585ED8093C8
:101C0000BC008091260490912704A0912804B091F3
:101C100029040796A11DB11D23E0B695A7959795B8
:101C200087952A95D1F72091BC0024FD03C010921E
:101C300024040895409126045091270460912804BB
:101C400070912904452B462B472B69F30097A1057A
:101C5000B10541F02AE22A95F1F700C00197A109E8
:101C6000B109E1CF809125040C940C07AF92BF928B
:101C7000CF92DF92EF92FF920F931F93CF93DF9358
:101C800000D01F92CDB7DEB78C016B017A01809135
:101C90009A048333E9F45B016801C40ED51EC016B3
:101CA000D106A9F10E94F5088FE00E940009812F5A
:101CB0000E940009802F0E9400090F5F1F4F80E0E3
:101CC0000E940009F50181935F010E94EB08E7CFB4
:101CD000843369F50E94F50819830A838F2D8F7765
:101CE0008B83EC8264E070E0CE0101960E94D10803
:101CF000A70170E060E0C6010E947928E114F104B8
:101D000021F0B701C6010E94D1080E94EB08C7016B
:101D10000F900F900F900F90DF91CF911F910F9127
:101D2000FF90EF90DF90CF90BF90AF9008950E940A
:101D3000F5080F3F110509F030F419820A831B8260
:101D400063E070E0D1CF17FD0BC019820A8333E046
:101D5000169507953A95E1F7007E08600B83F0CF62
:101D6000C80126E0969587952A95E1F7807E19832C
:101D70000A830115104C18F480618B83E1CF8861D0
:101D8000FCCFCF93DF931F92CDB7DEB720919B049A
:101D900030E0322F2227260F371F90E0982F882718
:101DA00041E050E0BE016F5F7F4F820F931F0E94A2
:101DB000360E89810F90DF91CF910895CF93C82F70
:101DC000462F61E070E00E94130A61E070E08C2F02
:101DD0000E94C10E8111F9CFCF910895CF93C82FE2
:101DE00080E591E00E94310268E070E08C2FCF9195
:101DF0000C94DE0ECF93C82F80E591E00E94310253
:101E000060E170E08C2FCF910C94DE0ECF93DF93C6
:101E1000EC01888D883020F40E94FA0E88E0888FCB
:101E2000DF91CF910895CF93C82F80E591E00E9474
:101E3000310263E070E08C2FCF910C94C10ECF93F0
:101E4000DF93EC018C858830D0F40E94130F84312D
:101E500089F0882379F0883169F021E08C3159F4D8
:101E6000E881F9810084F185E02DCE01199521E00A
:101E7000892B09F420E0822FDF91CF91089580E033
:101E8000FBCFCF92DF92EF92FF92CF93DF93EC01E3
:101E90008C85883068F40E94EE0E0E947F036B01EF
:101EA0007C018C850E94130F811109C088E08C870A
:101EB000DF91CF91FF90EF90DF90CF90089561E098
:101EC00070E080E090E00E944D030E947F03AB0130
:101ED000BC014C195D096E097F098D859E85B0E0B6
:101EE000A0E0481759076A077B07D8F28C850E9443
:101EF000FA0EDCCFCF93FC01C08D80E591E00E940B
:101F0000310260E270E08C2F0E94DE0E62E070E031
:101F10008C2F0E94C10E84FD16C062E070E08C2FF1
:101F20000E94C10E83FF0AC048E162E070E08C2F7E
:101F30000E94130A80E090E0CF91089580E591E03F
:101F40000E943102E3CF40E162E070E08C2F0E94FA
:101F5000130A81E0F0CFCF93DF931F92CDB7DEB7A6
:101F600041E050E0BE016F5F7F4F90E080E00E9453
:101F7000360E89810F90DF91CF910895CF93DF9333
:101F8000C4E1D0E00E94AB0F882361F061E070E013
:101F900080E090E00E944D032197A1F780E0DF915F
:101FA000CF91089581E0FBCFCF92DF92EF92FF9225
:101FB0000F931F93CF93DF93CDB7DEB7C454D109EE
:101FC0000FB6F894DEBF0FBECDBFFC0182819381B6
:101FD000A481B58123968CAF9DAFAEAFBFAF2397E1
:101FE00021E023962FAF239723964CAD5DAD6EADC8
:101FF0007FAD23974BAB5CAB6DAB7EAB89AF9AAF3C
:10200000ABAFBCAF8DA79EA7AFA7B8AB28AB4DA514
:102010005EA56FA578A94FA358A769A77AA72EAB8D
:102020004BA95CA96DA97EA949A35AA36BA37CA364
:102030008B8F9C8FAD8FBE8F4FEB52E05C8B4B8BA9
:102040003FEF3D8B3E8B3F8B188E5E874D872AA7D7
:10205000CFA0D8A4E9A4FAA4CF86D88AE98AFA8ABC
:102060002CA309A11AA12BA13CA109871A872B87B0
:102070003C875A8349838B839C83AD83BE83809145
:102080009C0481119DC060E372E080E090E00E94BA
:102090004D031FB7F89480919904811127C0E3E3A1
:1020A000F3E08491EDEEF2E09491E82FF0E0EE0F92
:1020B000FF1FE256FD4FA591B491EC91E92321F465
:1020C00061E085E30E94C90261E085E30E94F702B6
:1020D0008CB580618CBD8CB580648CBD61E084E37F
:1020E0000E94F70261E083E30E94F7028091990465
:1020F0008F5F809399041FBFE8E0F3E0E491F0E084
:10210000EE0FFF1FEC57FD4F85919491909398042B
:1021100080939704E2ECF2E0E491E093960461E0AE
:102120008AE00E94F7020E94EB0880E591E00E949D
:10213000310284E380939A0480E80E94B5090E94EA
:10214000BE0F882309F472C088E00E94B5090E947E
:10215000AB0F883009F06AC080E10E94B5090E9487
:10216000AB0F803109F062C080E00E94B5090E9487
:10217000AB0F182F81115AC041E050E0BE016D5BDA
:102180007F4F8FE190E00E94360E24968FAD24970A
:10219000833009F04BC080E480939B0442E06EE101
:1021A00070E0812F0E94130A42E06FE170E0812FFE
:1021B0000E94130A1F5F183089F781E080939C0406
:1021C00080E591E00E94310246E050E062E072E07A
:1021D00089E090E00E94070944E050E0BE016D5F95
:1021E0007F4F8FE090E00E94070944E050E0BE017D
:1021F000615F7F4F81E090E00E94070944E050E07A
:10220000BE016B5E7F4F85E090E00E94070981E090
:102210008C8789859A85AB85BC8580936C05909366
:102220006D05A0936E05B0936F056FC087E3809333
:102230009A0480E80E94B5090E94BE0F882339F1F4
:1022400088E00E94B5090E94AB0F883001F580E15B
:102250000E94B5090E94AB0F182F8031C1F480E0B5
:102260000E94B5090E94AB0F811111C041E050E0FE
:10227000BE016D5B7F4F89E390E00E94360E24968D
:102280008FAD2497843019F410939B0496CF83E389
:1022900080939A0480E80E94B5090E94BE0F8823AB
:1022A00091F180E10E94B5090E94AB0F803159F590
:1022B00082E10E94B5090E94AB0F823121F580E0D6
:1022C0000E94B5090E94AB0F81111DC084E080936C
:1022D0009B0415E525961FAF259741E050E0BE0110
:1022E0006C5B7F4F8BE190E00E94070924961FAF43
:1022F000249741E050E0BE016D5B7F4F8AE190E0A2
:102300000E9407095ACF10929A04CC5BDF4F0FB698
:10231000F894DEBF0FBECDBFDF91CF911F910F911B
:10232000FF90EF90DF90CF9008951F93CF93DF93AE
:102330001F92CDB7DEB7182F80E591E00E943102E1
:10234000812F0E94C80927E0129FF0011124E25A50
:10235000FB4F22813381377041E050E0BE016F5F57
:102360007F4F820F931F0E94360E89810F90DF915D
:10237000CF911F910895FC01808D883040F4218D0C
:10238000328D232B21F00E94951190E008958FEF5C
:102390009FEF0895CF93DF93FC012485283028F028
:1023A0008FEF9FEFDF91CF910895EC010190F081C5
:1023B000E02D0084F185E02D1995892B89F38C851A
:1023C0000E94951190E0EECFDA01E0919B04F0E0DD
:1023D000FE2FEE27E60FF71F90E0982F8827A90120
:1023E000BD018E0F9F1F0C94360E8F929F92AF925D
:1023F000BF92CF92DF92EF92FF920F931F93CF93F2
:10240000DF93CDB7DEB760970FB6F894DEBF0FBE8F
:10241000CDBF7C0190919A04911115C018E0812FD5
:1024200060960FB6F894DEBF0FBECDBFDF91CF919F
:102430001F910F91FF90EF90DF90CF90BF90AF90E2
:102440009F908F90089508E0933309F404E06B01A6
:1024500080E591E00E9431029E012F5F3F4F5901BC
:10246000490110E063E070E0812F0E94C10EF40189
:1024700081934F018823C1F01F5F0113F3CF00E068
:10248000F50181915F018D3149F0883139F08A5130
:10249000823020F00F5F1013F3CFC0CF60E170E007
:1024A000802F0E94DE0E102FA12EB12C83EE93E020
:1024B0000197F1F742E870E060E0812F0E94130A73
:1024C0004FEF62E070E0812F0E94130AB601C11441
:1024D000D10491F48091000290910102019681153E
:1024E000F0EC9F0708F45CC0909301028093000217
:1024F0006091000270910102812F0E94FD0986E027
:10250000E6E1F2E0DE01199601900D928A95E1F77D
:10251000F70183818F778C8784818D8785818E8772
:10252000A7014E5F5F4F24E030E06CE070E0812F48
:102530000E94D609B601812F0E94E70926E030E00B
:10254000AE01475F5F4F66E070E0812F0E94D609C1
:1025500061E070E0812F0E94DE0E27E02A9DC0011D
:102560002B9D900D11249C01225A3B4F7901F901BA
:102570001182108222E030E0AE01415F5F4F68E2DD
:1025800070E0812F0E94E4118F8598899827892710
:102590009827F701938382831682158214823FCF96
:1025A00080E090ECA1CFCF92DF92EF92FF920F9359
:1025B0001F93CF93DF9300D000D0CDB7DEB78C014F
:1025C0006B017A01FC01808D883010F40E94FA0EB4
:1025D0008FEB92E09A838983F60182819381A481B3
:1025E000B5818B839C83AD83BE83B701CE010196F9
:1025F0000E94F511F801808F8830A0F4F586E486FA
:10260000128E118E81E026960FB6F894DEBF0FBEB3
:10261000CDBFDF91CF911F910F91FF90EF90DF9091
:10262000CF90089580E0EFCF7F928F929F92AF92EC
:10263000BF92CF92DF92EF92FF920F931F93CF93AF
:10264000DF931F921F92CDB7DEB7782E8B014A0120
:10265000590122E030E0AE014F5F5F4F64E270E06D
:102660000E94E411E980FA80FE24EF24FE24E00EAB
:10267000F11E9701377040919A04072D10E0433303
:1026800009F042C0085F1F4F102F0027110F110FD4
:10269000110FC901800F911F4733C9F1A9014A0DDC
:1026A0005B1D4130584098F160E078E06B01C21A40
:1026B000D30AA601B4010E940709A5014C195D09BE
:1026C000B4016C0D7D1DC8010E940709EA0CFB1CBA
:1026D000F982EA8222E030E0AE014F5F5F4F64E2B0
:1026E00070E0872D0E94D6090F900F90DF91CF9157
:1026F0001F910F91FF90EF90DF90CF90BF90AF9020
:102700009F908F907F900895005F1F4FBDCFA501D0
:10271000B401DACFEF92FF921F93CF93DF931F9212
:102720001F92CDB7DEB7182F22E030E0AE014F5F29
:102730005F4F60E270E00E94E411E980FA80FE24BD
:10274000EF24FE2422E030E0AE014F5F5F4F60E2F5
:1027500070E0812F0E94E41189819A81982789274E
:102760009827E816F90689F487E0189FF0011124EC
:10277000E25AFB4FF582E482C7010F900F90DF9180
:10278000CF911F91FF90EF9008957C01DBCF1F93B5
:10279000CF93DF93182F80E591E00E943102812FC3
:1027A0000E948A13EC0163E070E0812F0E94C10E49
:1027B000873121F08C3111F0D0E0C0E0CE01DF9103
:1027C000CF911F910895CF93DF93EC018C858830D2
:1027D00060F40E94130F873111F08C3131F48C8535
:1027E0000E94C7138115984088F3DF91CF91089517
:1027F000FC018485883010F40C94C71390E080E0CD
:1028000008959F92AF92BF92CF92DF92EF92FF9284
:102810000F931F93CF93DF938C015B01942EE52ED2
:10282000FC01C688D788F08C80E591E00E943102D7
:102830008F2D0E948A13C92DDE2D8C179D0708F459
:10284000EC019E01A501B6018F2D0E941413F80121
:10285000868997898C0F9D1F978B868BCE01DF9180
:10286000CF911F910F91FF90EF90DF90CF90BF908D
:10287000AF909F9008958F929F92AF92BF92CF9208
:10288000DF92EF92FF920F931F93CF936C015B0146
:102890008A01FC01C485C830F0F57A014130584006
:1028A00018F0E12C88E0F82E80E591E00E943102DA
:1028B0008C2F0E948A134C0163E070E08C2F0E94E1
:1028C000C10E873111F08C3149F58E149F0460F3ED
:1028D00080E591E00E9431029701A50170E060E07F
:1028E0008C2F0E94141360E270E08C2F0E94DE0E89
:1028F00062E070E08C2F0E94C10E84FD17C063E07F
:1029000070E08C2F0E94C10E81110BC081E090E01D
:10291000F6019383828310E000E010C0F12CE12CDB
:10292000D7CF80E591E00E943102E2CF40E162E042
:1029300070E08C2F0E94130AEF2841F3C801CF9159
:102940001F910F91FF90EF90DF90CF90BF90AF90CD
:102950009F908F900895FF920F931F93CF93DF93D3
:102960001F921F92CDB7DEB7F82E22E030E0AE0105
:102970004F5F5F4F66E270E00E94E41109811A81A7
:1029800010270127102722E030E0AE014F5F5F4F94
:1029900066E270E08F2D0E94E41189819A81982768
:1029A000892798270817190749F4C8010F900F9035
:1029B000DF91CF911F910F91FF9008958C01E3CF8C
:1029C0001F93CF93DF93182F87E0189FE001112406
:1029D000C25ADB4F88819981009761F480E591E0CC
:1029E0000E943102812F0E94AB142E81821B91091B
:1029F00099838883DF91CF911F910895FC0184858D
:102A0000883010F40C94E01490E080E008954F9228
:102A10005F927F928F929F92AF92BF92CF92DF92FE
:102A2000EF92FF920F931F93CF93DF931F921F920A
:102A3000CDB7DEB7782E6B014A01A82EB12C27E066
:102A4000829FC0011124FC01E25AFB4F7F010081EB
:102A5000118180E591E00E9431020815190554F4B6
:102A6000872D0E94AB14F70126818C01021B1109EE
:102A7000118300830115110529F563E070E0872DAE
:102A80000E94C10E843159F0882349F001E010E022
:102A90008C3111F410E000E0119501951109C80185
:102AA0000F900F90DF91CF911F910F91FF90EF90BA
:102AB000DF90CF90BF90AF909F908F907F905F906E
:102AC0004F900895801691060CF4840187E08A9D4A
:102AD000F0018B9DF00D1124E25AFB4FE280F38050
:102AE000C114D10451F12701F7E05F22872D0E9424
:102AF000C809840D951D20919A04273309F453C009
:102B00009801240D351D2130384008F44CC020E0D8
:102B100038E0490184189508A401B6010E94360ED8
:102B20002601480C591C6801C818D908872D0E9435
:102B3000C809A601B2010E94360EE00EF11E87E020
:102B40008A9DF0018B9DF00D1124E25AFB4FF38218
:102B5000E28220813181201B310B318320838681E9
:102B6000800F912F911D8A3F910510F4232BF1F4D2
:102B700087E08A9DF0018B9DF00D1124E25AFB4FF6
:102B80001682F982EA8222E030E0AE014F5F5F4FA9
:102B900068E270E0872D0E94D60960E470E0872D1E
:102BA0000E94DE0E7CCFA801B601C5CF868377CF09
:102BB000CF93DF93FC01218D328D2115310529F44E
:102BC0008FEF9FEFDF91CF910895EC01808D421739
:102BD000530708F0A9010E9407151816190684F773
:102BE000298D3A8D281B390B3A8F298FEBCF0F9304
:102BF0001F93CF93DF931F92CDB7DEB7FC01218DDA
:102C0000328D232B41F48FEF9FEF0F90DF91CF9107
:102C10001F910F9108958C0141E050E0BE016F5F5C
:102C20007F4FFC01808D0E940715181619065CF76E
:102C3000F801818D928D0197928F818F898190E02B
:102C4000E4CFCF93DF931F92CDB7DEB741E050E0E2
:102C5000BE016F5F7F4FFC0184850E940715181627
:102C6000190634F4898190E00F90DF91CF91089597
:102C70008FEF9FEFF9CFFC018485883010F40C941E
:102C8000071590E080E008958F929F92AF92BF92D7
:102C9000CF92DF92EF92FF920F931F93CF93DF9328
:102CA00000D000D000D01F92CDB7DEB790919A042B
:102CB000911115C018E0812F2A960FB6F894DEBF47
:102CC0000FBECDBFDF91CF911F910F91FF90EF907D
:102CD000DF90CF90BF90AF909F908F90089528E0A5
:102CE000F22E933311F494E0F92E6B01082F80E556
:102CF00091E00E9431029E012F5F3F4F590149012F
:102D000010E063E070E0812F0E94C10EF401819316
:102D10004F018823C1F01F5FF112F3CFF12CF501B1
:102D200091915F019D3149F0983139F09A5192307B
:102D300020F0F3941F11F3CFBDCF60E170E08F2D31
:102D40000E94DE0E1F2DE12EF12C83EE93E0019701
:102D5000F1F7402F70E060E0812F0E94130A4FEFDF
:102D600062E070E0812F0E94130AB601CD2889F439
:102D7000809100029091010201968115F0EC9F076D
:102D800098F190930102809300026091000270918B
:102D90000102812F0E94FD0961E070E0812F0E94F5
:102DA000DE0E27E02E9DC0012F9D900D11249C0169
:102DB000225A3B4F7901F9011182108222E030E062
:102DC000AE01475F5F4F68E270E0812F0E94E4111F
:102DD00089859A85982789279827F7019383828385
:102DE00016821582148267CF80E090ECCACF0F93D1
:102DF0001F93CF93DF93EC018B01888D883010F403
:102E00000E94FA0EB80182E00E944416888F883032
:102E100050F41D870C871A8E198E81E0DF91CF91B7
:102E20001F910F91089580E0F9CFCF92DF92EF923A
:102E3000FF921F93CF93DF93EC017B016A018C8596
:102E4000883048F40E94130F882319F08C850E9463
:102E5000EE0E88E08C87F70182819381A481B58191
:102E60000097A105B10551F490E080E0DF91CF918A
:102E70001F91FF90EF90DF90CF9008958F3F9F4F6D
:102E8000AF4FBF4F89F370E060E081E20E944416CB
:102E9000182F8C87883040F780E591E00E9431023E
:102EA000A7014E5F5F4F24E030E06CE070E0812FBF
:102EB0000E94D609B601812F0E94E70964E070E004
:102EC000812F0E94DE0E0E947F036B017C018C85A6
:102ED0000E94130F873111F18C3101F1882321F207
:102EE0000E947F03AB01BC014C195D096E097F098B
:102EF0008D859E85B0E0A0E084179507A607B707EB
:102F000038F061E070E080E090E00E944D03DFCF98
:102F10008C850E94FA0E88E08C87A6CF81E090E035
:102F2000A5CF0F931F93CF93DF931F921F92CDB71F
:102F3000DEB7FC0124852830E0F48C0180E591E0C7
:102F40000E94310222E030E0AE014F5F5F4F60E14E
:102F500070E0F80184850E94E41189819A819827A4
:102F6000892798270F900F90DF91CF911F910F9194
:102F7000089590E080E0F6CF0F931F93CF93DF93F7
:102F80001F921F92CDB7DEB7FC0124852830E0F4F4
:102F90008C0180E591E00E94310222E030E0AE0138
:102FA0004F5F5F4F64E070E0F80184850E94E41198
:102FB00089819A819827892798270F900F90DF9110
:102FC000CF911F910F91089590E080E0F6CF0F937D
:102FD0001F93CF93DF9300D000D01F921F92CDB7E5
:102FE000DEB78C01D80159964D915C915A974115E5
:102FF000510551F0ED91FC91048CF58DE02D70E0C0
:1030000060E0C8011995EECFF801808D0E94E014B0
:10301000892BB1F148E050E0BE016F5F7F4FD801CE
:1030200058968C910E94071518161906F4F4D801C9
:10303000509684E0FE01319601900D928A95E1F759
:103040008D8190E0982F88272E81820F911DF801A5
:10305000958B848B8F81282F30E0322F2227888513
:10306000820F932F911D928F818F28960FB6F8941F
:10307000DEBF0FBECDBFDF91CF911F910F9108959D
:1030800090E080E0F2CF4F925F926F927F928F92AA
:103090009F92AF92BF92CF92DF92EF92FF920F93E7
:1030A0001F93CF93DF93CDB7DEB763970FB6F89436
:1030B000DEBF0FBECDBF7C016B013A01FB0120E0FA
:1030C00090E080E06AE03191332309F461C040ED83
:1030D000430F4A3008F04DC0689FA001699F500D12
:1030E0001124CA01C097830F911D37FD9A958F3F18
:1030F000910549F340F3F701428153816481758161
:103100008091780590917905A0917A05B0917B0521
:10311000481759076A077B0709F40DC28701085F42
:103120001F4F0E947F036F7077277C5FC8010E944A
:10313000F716813009F004C28FEB92E09A838983FD
:10314000F70182819381A481B5818B839C83AD83B8
:10315000BE8345E350E0BE016F5F7F4FC8010E9410
:10316000690A892BA9F5D12CC12CC8010E94060F30
:1031700017C03E3209F0BFCF233009F4BCCFD301D2
:10318000A20FB11D12968C932F5F90E080E09BCF31
:10319000233009F0B0CFF3018583CC24C394D12C24
:1031A000C60163960FB6F894DEBF0FBECDBFDF91A8
:1031B000CF911F910F91FF90EF90DF90CF90BF9034
:1031C000AF909F908F907F906F905F904F900895F9
:1031D0000E947F03F7017783668342E050E0B701E6
:1031E0006A5F7F4FC8010E94011481E090E09A83DA
:1031F000898342E050E0BE016F5F7F4FC8010E94AB
:10320000011480E091E09A83898342E050E0BE019E
:103210006F5F7F4FC8010E9401141A82198242E039
:1032200050E0BE016F5F7F4FC8010E94011442E071
:1032300050E0BE016F5F7F4FC8010E94011442E061
:1032400050E0BE016F5F7F4FC8010E94011456011C
:10325000F6018081882301F16501F60181912F013A
:10326000882311F08E32B1F446018A189B08181495
:10327000190474F48D8641E050E0BE01635F7F4F16
:10328000C8010E940114A401B501C8010E940114E3
:103290005201DECF6201E1CF1D8641E050E0BE0168
:1032A000635F7F4FC8010E940114C12CDD24D394B9
:1032B000DA82C98242E050E0BE016F5F7F4FC801F1
:1032C0000E940114DA82C98242E050E0BE016F5FC1
:1032D0007F4FC8010E940114C8010E947A0F892BF8
:1032E00009F441CFF3E0AF2EB12C230122E0420ECE
:1032F000511CD4C0F7014281538164817581808D56
:10330000918DA28DB38D481759076A077B0709F085
:1033100008C1848D958DC59709F003C181A192A143
:103320005DEFC52EDD24DA940C970CF4ADC04CE0B3
:1033300050E0BE016F5F7F4FC8010E94D8158B819E
:103340009C819827892798279A8B898BF70146813A
:10335000578129813A814217530709F0E7C097FF47
:10336000E5C08F7092703BEFC32EDD24DA94892B79
:1033700009F08AC06F8078847624672476242AEF47
:10338000C22EDD24DA946114710409F47DC0D12CBD
:10339000C12C8D819E81982789279827C816D90628
:1033A000F8F441E050E0BE01635F7F4FC8010E9426
:1033B000D8154D85442331F050E070E060E0C8013D
:1033C0000E94D8158D858111ECCF44E050E070E06B
:1033D00060E0C8010E94D815FFEFCF1ADF0AD9CFED
:1033E000912C812C41E050E0BE016D5E7F4FC80101
:1033F0000E94D8154B89842F807C09F06CC044232F
:1034000031F050E070E060E0C8010E94D8158B896F
:103410008111E8CF42E050E0BE01615F7F4FC801FB
:103420000E94D81542E050E0BE01635F7F4FC801A3
:103430000E94D81544E050E070E060E0C8010E94AE
:10344000D81542E050E0BE016F5E7F4FC8010E9478
:10345000D8158F85988949895A898115914009F035
:1034600043C0CD84DE84DC24CD24DC2481E0C81676
:10347000D104D1F54115544009F04AC044E050E070
:10348000B201C8010E94D81521E0A21AB10809F4BE
:103490006CCEFFEFCF16DF0609F067CE0E947F03E8
:1034A0003B014C01C8010E94E717181619060CF4DD
:1034B00021CF0E947F036619770988099909693825
:1034C00073418105910548F562E370E080E090E08A
:1034D0000E944D03E7CF41E050E070E060E0C8019A
:1034E0000E94D8151B8A93CF54274527542770E094
:1034F00060E0C8010E94D815FFEF8F1A9F0A681478
:10350000790409F06FCF96EFC92EDD24DA94BCCF91
:10351000E7EFCE2EDD24DA94B7CFCC24CA94DC2C8E
:10352000B3CF6EEFC62EDD24DA94AECF4CEFC42EAF
:10353000DD24DA94A9CF8EEFC82EDD24DA9430CEC4
:10354000D12CC12C2DCECF92DF92EF92FF920F9310
:103550001F93CF93DF93CDB7DEB7AF970FB6F89435
:10356000DEBF0FBECDBF7C016A010FEB12E01A83F4
:1035700009831C861B8688EE93E0A0E0B0E08D876F
:103580009E87AF87B88B87E292E09A878987188FEA
:103590000F8B198E1A8E1B8E1C8E88E089A31BA799
:1035A0000AA71CA61DA61EA61FA680916C059091B9
:1035B0006D05A0916E05B0916F058EA39FA3A8A77E
:1035C000B9A78B839C83AD83BE8318861F82AE010F
:1035D000465D5F4FCE0101960E94431881309105F0
:1035E000B1F4D701ED91FC910488F589E02D1DA37C
:1035F0000CA38CA59DA5AEA5BFA58EA39FA3A8A730
:10360000B9A7A601BE016C5D7F4FC7011995AF96A2
:103610000FB6F894DEBF0FBECDBFDF91CF911F91E3
:103620000F91FF90EF90DF90CF900895CF92DF92AF
:10363000EF92FF920F931F93CF93DF93CDB7DEB737
:10364000AF970FB6F894DEBF0FBECDBF8C016B01F4
:103650007A018FEB92E09A8389831B821C821D8200
:103660001E821C861B8648EE53E060E070E04D87AA
:103670005E876F87788B27E232E03A872987988FB9
:103680008F8B198E1A8E1B8E1C8E28E029A39BA768
:103690008AA71CA61DA61EA61FA6D8011C968C9143
:1036A000883060F40E94130F882321F0F80184858C
:1036B0000E94EE0E88E0D8011C968C9380916C05D8
:1036C00090916D05A0916E05B0916F058EA39FA39B
:1036D000A8A7B9A78B839C83AD83BE8318861F825E
:1036E000AE01465D5F4FB601CE0101960E944318C0
:1036F0000097C1F0D801ED91FC910684F785E02D8B
:103700008FEB92E09DA38CA38CA59DA5AEA5BFA534
:103710008EA39FA3A8A7B9A7A701BE016C5D7F4F89
:10372000C8011995AF960FB6F894DEBF0FBECDBF96
:10373000DF91CF911F910F91FF90EF90DF90CF908D
:103740000895EF92FF920F931F93CF93DF9300D0D2
:103750001F92CDB7DEB78C017B01FB0184858830D9
:10376000A8F08FEB92E0F80191838083128213829C
:1037700014821582C8010F900F900F900F90DF9167
:10378000CF911F910F91FF90EF90089580E591E008
:103790000E94310224E030E0AE014F5F5F4F6CE0E9
:1037A00070E0F70184850E94E4118FEB92E0F8014C
:1037B0009183808389819A81AB81BC818283938349
:1037C000A483B583D7CF0C94DE271F920F920FB638
:1037D0000F9211242F933F938F939F93AF93BF9397
:1037E0008091560490915704A0915804B0915904C7
:1037F0003091550423E0230F2D3758F50196A11D74
:10380000B11D209355048093560490935704A093C0
:103810005804B093590480915A0490915B04A0918C
:103820005C04B0915D040196A11DB11D80935A0402
:1038300090935B04A0935C04B0935D04BF91AF913F
:103840009F918F913F912F910F900FBE0F901F90DE
:10385000189526E8230F0296A11DB11DD2CF1F9205
:103860000F920FB60F9211240BB60F922F933F9326
:103870004F935F936F937F938F939F93AF93BF9378
:10388000EF93FF938DE994E00E940706FF91EF917B
:10389000BF91AF919F918F917F916F915F914F9168
:1038A0003F912F910F900BBE0F900FBE0F901F9066
:1038B00018951F920F920FB60F9211240BB60F920C
:1038C0002F938F939F93EF93FF93E091AD04F0912B
:1038D000AE048081E091B304F091B40482FD1DC078
:1038E00090818091B6048F5F8F732091B704821707
:1038F00041F0E091B604F0E0E356FB4F958F8093E2
:10390000B604FF91EF919F918F912F910F900BBE75
:103910000F900FBE0F901F9018958081F2CF1F92CD
:103920000F920FB60F9211240BB60F922F933F9365
:103930004F935F936F937F938F939F93AF93BF93B7
:10394000EF93FF938091B900887F803609F44DC0D2
:1039500008F040C0883209F4A9C028F5803109F484
:103960009DC0C8F4882309F4FBC0883009F496C0D0
:10397000FF91EF91BF91AF919F918F917F916F9147
:103980005F914F913F912F910F900BBE0F900FBE03
:103990000F901F901895883109F488C0803241F744
:1039A0008093220414C0803409F49DC040F4803315
:1039B000B9F38833E9F68093220485ECB0C08035F2
:1039C00009F485C0883509F496C0883489F60E94C8
:1039D000FE0DCECF883909F48CC038F5883729F030
:1039E00050F4883611F0803719F683E08093240470
:1039F0001092FD0357C0883809F47BC0803919F054
:103A0000803809F0B5CF8091FD03803208F071C095
:103A1000E091FD0381E08E0F8093FD038091BB0058
:103A2000F0E0E352FC4F80833DC0803B39F0E0F48E
:103A3000803A09F479C0883A09F09ACF84E08093FB
:103A400024041092DC031092DB03E0914E04F09109
:103A50004F0419958091DB0381110FC081E08093A1
:103A6000DB031092BB0309C0803C09F4A6CF883C5D
:103A700009F4A3CF883B09F07BCFE091DC0381E020
:103A80008E0F8093DC03F0E0E554FC4F808180933F
:103A9000BB009091DC038091DB0329C08091FF0380
:103AA0008093BB0085EC8093BC0062CF9091210491
:103AB00080912004981758F5E091210481E08E0F41
:103AC00080932104F0E0E050FC4F8081E9CFE09149
:103AD000210481E08E0F809321048091BB00F0E0EF
:103AE000E050FC4F8083909121048091200498172E
:103AF000C8F285E8D8CFE091210481E08E0F809351
:103B000021048091BB00F0E0E050FC4F8083809165
:103B1000230481115CCF81E08093FE0384EA8093CB
:103B2000BC001092240424CF85EC8093BC0010923A
:103B300024048091FD03803230F4E091FD03F0E035
:103B4000E352FC4F10826091FD0370E0E0914C0461
:103B5000F0914D048DED93E019951092FD0308CF7F
:103B60001092220434CF1F93CF93DF93EDE9F4E05A
:103B70001382128248EE53E060E070E04483558384
:103B80006683778381E592E09183808385EC90E082
:103B90009587848784EC90E09787868780EC90E017
:103BA000918B808B81EC90E0938B828B82EC90E008
:103BB000958B848B86EC90E0978B868B118E128E82
:103BC000138E148EEAE3F5E0138212824483558348
:103BD0006683778383E692E091838083E6E4F5E071
:103BE0008FEB92E09183808312821382148215827C
:103BF000ECE4F5E0918380831282138214821582B3
:103C0000E2E5F5E0918380831282138214821582AB
:103C1000E8E5F5E091838083128213821482158295
:103C2000EEE5F5E09183808312821382148215827F
:103C3000E4E6F5E091838083128213821482158278
:103C4000E0E7F5E09183808312821382148215826B
:103C5000EAE6F5E091838083128213821482158252
:103C6000E6E7F5E091838083128213821482158245
:103C7000ECE7F5E09183808312821382148215822F
:103C8000EAEDF5E09183808312821382148215821B
:103C9000E4EDF5E09183808320EC228328EA2383FE
:103CA00011E0148321EB2583E5ECF5E01382128209
:103CB00044835583668377832DE832E03183208304
:103CC00028E0248728EE33E036872587CCE9D5E045
:103CD0001B821A8221E832E0398328839C8F8B8FE4
:103CE0001D8E1E8E1F8E18A28FEF9FEF98A78FA399
:103CF000FD83EC831EA21DA280E091E00E9442277A
:103D00009F838E8380E091E0998788878FE090E0A1
:103D10009B878A879D878C87E0E9F5E01382128272
:103D200085E792E09183808387E2848380E18187C5
:103D300082E082871386E2E8F5E087E086838BE005
:103D4000878386E080871587DF91CF911F91089543
:103D5000CF93DF93CDB7DEB72C970FB6F894DEBFC5
:103D60000FBECDBF789484B5826084BD84B5816078
:103D700084BD85B5826085BD85B5816085BD809136
:103D80006E00816080936E001092810080918100AE
:103D900082608093810080918100816080938100A6
:103DA000809180008160809380008091B100846068
:103DB0008093B1008091B00081608093B0008091C9
:103DC0009100826080939100809191008160809346
:103DD0009100809190008160809390008091A1007B
:103DE00082608093A1008091A10081608093A100F6
:103DF0008091A00081608093A00080912101826069
:103E00008093210180912101816080932101809123
:103E1000200181608093200180917A0084608093EA
:103E20007A0080917A00826080937A0080917A0093
:103E3000816080937A0080917A00806880937A0014
:103E40001092C100E091AD04F091AE0482E0808355
:103E5000E091A904F091AA041082E091AB04F091E2
:103E6000AC048FEC80831092B504E091B104F09122
:103E7000B20486E08083E091AF04F091B0048081C9
:103E800080618083E091AF04F091B004808188600C
:103E90008083E091AF04F091B004808180688083DA
:103EA000E091AF04F091B00480818F7D80838FEB2F
:103EB00092E09A8389838091D6059091D705A0914D
:103EC000D805B091D9058B839C83AD83BE83CE0189
:103ED00001960E94D40F80ED92E09093BE058093EE
:103EE000BD058BE597E09093C0058093BF0560E02A
:103EF000809188050E94F70261E0809188050E9408
:103F0000C90210928B0510928C0510928D051092AB
:103F10008E05109253041092520410925104109284
:103F200050040E94EE068AE895E090934F04809337
:103F30004E048BE895E090934D0480934C041092CE
:103F4000950580919A05823018F098E09093950538
:103F50008093980562E370E080E090E00E944D035A
:103F600060919B0580E995E00E94B20768EE73E0DE
:103F700080E090E00E944D0360E380E995E00E94BC
:103F8000A20B0BE416E4C8010197F1F760E380E9A6
:103F900095E00E94A20BC8010197F1F760E380E968
:103FA00095E00E94A20B83E592E00197F1F760E2B1
:103FB00080E995E00E94A20B60919505606240E067
:103FC00080E995E00E94BB0B84E08093960540E079
:103FD0006CE080E995E00E94BB0B40E061E080E985
:103FE00095E00E94BB0B0BE31FE1C8010197F1F7BD
:103FF00082E08093970540E066E080E995E00E94CA
:10400000BB0B40E062E080E995E00E94BB0BC80179
:104010000197F1F788E080939B0560E080E995E0E7
:104020000E94B20761E085E00E94F70261E086E04D
:104030000E94F70260E085E00E94C90260E086E02D
:104040000E94C90262EE72E080E995E00E94680C6D
:1040500060ED77E080E090E00E944D0340E061E099
:1040600080E995E00E94BB0BC8010197F1F70E941F
:10407000F901811150C112E00E94F90181114BC177
:104080006FEE72E08DE994E00E94680C0E94F901E5
:10409000811136C18091A0059091A105DC01ED91BF
:1040A000FC910688F789E02D1995882309F478C0DA
:1040B000E1E0F0E0F093AB05E093AA0587E0ECE1E6
:1040C000F2E0DE01119601900D928A95E1F7DE0192
:1040D000119685E090E02D91E091A205F091A30565
:1040E000E80FF91F208301968C309105A1F7E0902D
:1040F000A205F090A305D7011C961C931C978091F4
:10410000A7051D968C931D978091A6051E968C93EE
:10411000C090A405D090A505B60185E093E00E946B
:1041200089244196C816D90608F073C08091A0056D
:104130009091A105DC01ED91FC910488F589E02DB9
:1041400019956EE173E08DE994E00E94680CC090CF
:10415000C305D090C4050D2C000CEE08FF082AE022
:10416000B701A601F7FE0DC06DE28DE994E00E9453
:104170008C0544275527BA014C195D096E097F0942
:104180002AE08DE994E00E94770C8AE293E00E9495
:10419000090D68E873E180E090E00E944D036CCF68
:1041A0006091BD057091BE058091A0059091A1051B
:1041B000DC01ED91FC914091BF055091C005611566
:1041C000710571F00088F189E02D1995019709F4C6
:1041D0006FCFEEEFFFEFF093C405E093C305B1CFCF
:1041E0000684F785E02DAFEBCA2EA2E0DA2EDA8244
:1041F000C982C090B905D090BA05E090BB05F09097
:10420000BC05CB82DC82ED82FE82BE016F5F7F4FF8
:10421000DCCF4FE050E0B70185E093E00E94D7018A
:10422000AC01455051096091A2057091A30580E150
:104230000E948B030E947F036093AC057093AD05D1
:104240008093AE059093AF056093B0057093B10570
:104250008093B2059093B3058091A0059091A1053C
:10426000DC01ED91FC910084F185E02D1995892BFD
:1042700031F50E947F03C090B005D090B105E09069
:10428000B205F090B3059B01AC012C193D094E0914
:104290005F0969017A012091A8053091A905A8EE6E
:1042A000B3E00E94E024C616D706E806F906A0F29D
:1042B0004CEF5FEF5093C4054093C30537CFCE0159
:1042C00008960E943904643071058105910509F052
:1042D0002DCFE091A205F091A3058381811115C036
:1042E0000E947F036093B0057093B1058093B2057F
:1042F0009093B3051092B4051092C4051092C305B3
:1043000083E193E00E94090DB7CE90E09093C4053D
:104310008093C3050BCF0E94F901882309F44FC095
:104320000E947F034B015C012091A6053091A705F7
:10433000A8EEB3E00E94E0240091B0051091B10511
:104340002091B2053091B30575016401C01AD10AFC
:10435000E20AF30A97018601601771078207930743
:10436000B0F00091AC051091AD052091AE053091F3
:10437000AF0575016401C01AD10AE20AF30A970178
:104380008601601771078207930708F087C0809144
:10439000B405882309F453C07CEFE72EFF24FA9478
:1043A000F092C405E092C3058091A0059091A1050B
:1043B000DC01ED91FC910488F589E02D199580913F
:1043C0007B00877F80937B0080E480937C008091DA
:1043D0007A00806480937A0080917A0086FDFCCF19
:1043E0002091780030917900ACE9BFEF0E9433272B
:1043F0002FEF33E040E050E00E94942429873A8771
:104400004B875C8729013A01B4E64B0E511C611CB5
:10441000711C12010E94DE0A882351F080918905E7
:104420008B3009F424C120F08551823008F43DC15D
:10443000C12CD12C90ECE92E9FE7F92E21C1E091FF
:10444000A205F091A30580EC8083E091A205F09194
:10445000A30511828091A0059091A1056091A2050C
:104460007091A305DC01ED91FC910280F381E02DB8
:1044700042E050E019958092AC059092AD05A09273
:10448000AE05B092AF058092B0059092B105A092B2
:10449000B205B092B30581E08093B4058091A00588
:1044A0009091A105DC01ED91FC910084F185E02D56
:1044B0001995892B09F483CFCE0101960E94390406
:1044C0002B01672B09F4D0C08092B0059092B10502
:1044D000A092B205B092B305E091A205F091A305B8
:1044E0008081807F803309F09EC08091B5059091D6
:1044F000B605892B09F463CF498150E0CA010296C1
:104500008E0F9F1FDF01A40FB51F1196EC90F12CA9
:10451000FE2CEE24DC016C91E60EF11C4D5F5F4F2A
:10452000BF01640F751FA7010E946728E981809170
:10453000A2059091A3058E0D9F1DE80FF92FF11D87
:104540001282E091A205F091A305298130E0C90112
:1045500002968E0F9F1F108116702090B505309027
:10456000B605123009F04DC0B701620F731FDF01AD
:10457000A60FB71F1396CC901397D12CDC2CCC240C
:1045800014964C91C40ED11C4BEF5FEF421B530BA2
:104590004E195F09440D551D6B5F7F4F6E0F7F1FD6
:1045A000F1011995E091A205F091A30580E48083C3
:1045B000E091A205F091A3051183E091A205F0918D
:1045C000A305D282E091A205F091A305C382809158
:1045D000A0059091A1056091A2057091A305DC0151
:1045E000ED91FC910280F381E02D44E050E01995BB
:1045F0008092AC059092AD05A092AE05B092AF0549
:10460000DECE4DEF5FEF421B530B4E195F09440D99
:10461000551D2D5F3F4F2E0D3F1DBF01620F731FB4
:10462000F1011995CCCE803CC9F480ED8083E091F6
:10463000A205F091A30511828091A0059091A1059A
:104640006091A2057091A305DC01ED91FC910280BF
:10465000F381E02D42E050E01995B1CE803D09F0A4
:10466000AECE1092B405ABCE0E94F901A8CE6091F7
:10467000840570E090E080E00E9402266B017C01DE
:104680000E94DE0A882309F454C0809189058B308A
:10469000B9F120F08551823008F452C0812C912C60
:1046A00080ECA82E8FE7B82E34C010918405612FBE
:1046B0006F7770E090E080E00E94042620E030E018
:1046C00040E853E40E94B9266B017C0160918505A6
:1046D00070E090E080E00E940426A70196010E940D
:1046E000F02420E030E040E251E40E9461256B01BB
:1046F0007C0117FFC5CFF7FAF094F7F8F094C0CF1C
:104700006091820570E090E080E00E9402264B01FB
:104710005C01A7019601C701B6010E9426278111FD
:1047200008C0A5019401C501B4010E942627882371
:1047300041F185E493E00E94090D0E94960697CC12
:104740006091820570E090E080E00E94022620E007
:1047500030E040E853E40E94B9264B015C016091CF
:10476000830570E090E080E00E940426A50194019A
:104770000E94F02420E030E040E251E40E946125F4
:10478000C6CF80E00E94D20B65E673E080E995E039
:104790000E94680C2AE0B301A20177FE12C06DE20C
:1047A00080E995E00E948C054CE95FEF6FEF7FEFA9
:1047B00089859A85AB85BC85481B590B6A0B7B0B99
:1047C0002AE080E995E00E94770C6CE673E080E9CE
:1047D00095E00E94680C81E00E94D20B6EE673E0C7
:1047E00080E995E00E94680C42E0C701B6010E9492
:1047F0001C0D61E773E080E995E00E94680C42E0DF
:10480000C501B4010E941C0D6CE673E080E995E0DF
:104810000E94680C9EE1291631040CF048C020E08B
:1048200030E040E752E4C501B4010E945C2587FFF7
:104830002AC020E030E048EC51E4C701B6010E94F4
:10484000B426181604F580915404811147C081E004
:104850008093540461E086E00E94C90261E085E033
:104860000E94C90266E773E084E893E00E94070CA7
:1048700086E793E00E94090D60ED77E080E090E02C
:104880000E944D035ACF20E030E040E752E4C501DA
:10489000B4010E94B42687FF0AC020E030E048EC53
:1048A00051E4C701B6010E945C2518162CF38091D3
:1048B0005404882309F31092540460E086E00E94B7
:1048C000C90260E085E00E94C9026BE873E084E8F9
:1048D00093E00E94070C8BE893E0CCCF20E030E01F
:1048E00040E752E4C501B4010E94B42687FFE3CF3C
:1048F00020E030E048EC51E4C701B6010E945C259D
:104900001816CCF6B9CF8091A2059091A3050C940E
:10491000DE27FC016150704001900110D8F78095AE
:1049200090958E0F9F1F0895052E97FB1EF40094FF
:104930000E94AB2457FD07D00E94BE2407FC03D081
:104940004EF40C94AB2450954095309521953F4FF3
:104950004F4F5F4F089590958095709561957F4F6B
:104960008F4F9F4F08950E94E024A59F900DB49F04
:10497000900DA49F800D911D11240895A1E21A2E7F
:10498000AA1BBB1BFD010DC0AA1FBB1FEE1FFF1FF3
:10499000A217B307E407F50720F0A21BB30BE40B43
:1049A000F50B661F771F881F991F1A9469F760958A
:1049B0007095809590959B01AC01BD01CF01089544
:1049C000A29FB001B39FC001A39F700D811D112450
:1049D000911DB29F700D811D1124911D0895505895
:1049E000BB27AA270E9407250C947A260E946C26D2
:1049F00038F00E94732620F039F49F3F19F426F412
:104A00000C9469260EF4E095E7FB0C946326E92FDD
:104A10000E948B2658F3BA1762077307840795071D
:104A200020F079F4A6F50C94AD260EF4E0950B2E4B
:104A3000BA2FA02D0B01B90190010C01CA01A001F0
:104A40001124FF27591B99F0593F50F4503E68F14B
:104A50001A16F040A22F232F342F4427585FF3CF8C
:104A6000469537952795A795F0405395C9F77EF45D
:104A70001F16BA0B620B730B840BBAF09150A1F0A6
:104A8000FF0FBB1F661F771F881FC2F70EC0BA0F2C
:104A9000621F731F841F48F4879577956795B795B4
:104AA000F7959E3F08F0B0CF9395880F08F09927AF
:104AB000EE0F9795879508950E943F2608F481E0B0
:104AC00008950E9475250C947A260E94732658F04A
:104AD0000E946C2640F029F45F3F29F00C94632675
:104AE00051110C94AE260C9469260E948B2668F313
:104AF0009923B1F3552391F3951B550BBB27AA2797
:104B000062177307840738F09F5F5F4F220F331FD0
:104B1000441FAA1FA9F335D00E2E3AF0E0E832D098
:104B200091505040E695001CCAF72BD0FE2F29D09B
:104B3000660F771F881FBB1F261737074807AB076D
:104B4000B0E809F0BB0B802DBF01FF2793585F4FE2
:104B50003AF09E3F510578F00C9463260C94AE26F3
:104B60005F3FE4F3983ED4F3869577956795B795C4
:104B7000F7959F5FC9F7880F911D9695879597F9CF
:104B80000895E1E0660F771F881FBB1F6217730748
:104B90008407BA0720F0621B730B840BBA0BEE1F5D
:104BA00088F7E09508950E94932688F09F5798F023
:104BB000B92F9927B751B0F0E1F0660F771F881F22
:104BC000991F1AF0BA95C9F714C0B13091F00E943C
:104BD000AD26B1E008950C94AD26672F782F882775
:104BE000B85F39F0B93FCCF3869577956795B39563
:104BF000D9F73EF490958095709561957F4F8F4FD2
:104C00009F4F0895E89409C097FB3EF490958095D6
:104C1000709561957F4F8F4F9F4F9923A9F0F92F82
:104C200096E9BB279395F695879577956795B79500
:104C3000F111F8CFFAF4BB0F11F460FF1BC06F5FE6
:104C40007F4F8F4F9F4F16C0882311F096E911C0F8
:104C5000772321F09EE8872F762F05C0662371F019
:104C600096E8862F70E060E02AF09A95660F771F2D
:104C7000881FDAF7880F9695879597F90895990F09
:104C80000008550FAA0BE0E8FEEF16161706E80716
:104C9000F907C0F012161306E407F50798F0621B37
:104CA000730B840B950B39F40A2661F0232B242B0C
:104CB000252B21F408950A2609F4A140A6958FEF2B
:104CC000811D811D089597F99F6780E870E060E07D
:104CD00008959FEF80EC089500240A941616170695
:104CE00018060906089500240A94121613061406DD
:104CF00005060895092E0394000C11F4882352F040
:104D0000BB0F40F4BF2B11F460FF04C06F5F7F4FF7
:104D10008F4F9F4F089557FD9058440F551F59F0DE
:104D20005F3F71F04795880F97FB991F61F09F3F98
:104D300079F087950895121613061406551FF2CFC1
:104D40004695F1DF08C0161617061806991FF1CF11
:104D500086957105610508940895E894BB27662738
:104D60007727CB0197F908950E943F2608F48FEF2B
:104D700008950E94CC260C947A260E946C2638F066
:104D80000E94732620F0952311F00C9463260C9456
:104D9000692611240C94AE260E948B2670F3959FF1
:104DA000C1F3950F50E0551F629FF001729FBB2722
:104DB000F00DB11D639FAA27F00DB11DAA1F649FBE
:104DC0006627B00DA11D661F829F2227B00DA11D71
:104DD000621F739FB00DA11D621F839FA00D611DF7
:104DE000221F749F3327A00D611D231F849F600D18
:104DF000211D822F762F6A2F11249F5750409AF041
:104E0000F1F088234AF0EE0FFF1FBB1F661F771FCC
:104E1000881F91505040A9F79E3F510580F00C9497
:104E200063260C94AE265F3FE4F3983ED4F3869558
:104E300077956795B795F795E7959F5FC1F7FE2B37
:104E4000880F911D9695879597F908950E943F26A2
:104E5000880B990B0895EE0FFF1F881F8BBF0790DB
:104E6000F691E02D19940E94E024332312F48A1B5A
:104E70009B0B0C943D270E94E024B7FF0895821BF2
:104E8000930B08950F931F93CF93DF938230910577
:104E900010F482E090E0E091E205F091E30530E06B
:104EA00020E0B0E0A0E0309799F42115310509F435
:104EB0004AC0281B390B24303105D8F58A819B81E3
:104EC0006115710589F1FB0193838283FE0111C095
:104ED000408151810281138148175907E0F048173A
:104EE000590799F4109761F012960C931297139644
:104EF0001C933296CF01DF91CF911F910F910895AE
:104F00000093E2051093E305F4CF2115310551F02C
:104F10004217530738F0A901DB019A01BD01DF01F7
:104F2000F801C1CFEF01F9CF9093E3058093E2053B
:104F3000CDCFFE01E20FF31F8193919322503109EF
:104F400039832883D7CF2091E0053091E105232BC9
:104F500041F420910A0230910B023093E105209335
:104F6000E00520910802309109022115310541F434
:104F70002DB73EB740910C0250910D02241B350B0A
:104F8000E091E005F091E105E217F307A0F42E1B94
:104F90003F0B2817390778F0AC014E5F5F4F24179D
:104FA000350748F04E0F5F1F5093E1054093E00531
:104FB000819391939FCFF0E0E0E09CCFCF93DF937C
:104FC0000097E9F0FC01329713821282A091E2056A
:104FD000B091E305ED0130E020E01097A1F42081CD
:104FE0003181820F931F2091E0053091E105281750
:104FF000390709F061C0F093E105E093E005DF9126
:10500000CF910895EA01CE17DF07E8F54A815B8169
:105010009E0141155105B1F7E901FB83EA834991EE
:105020005991C40FD51FEC17FD0761F48081918160
:105030000296840F951FE901998388838281938169
:105040009B838A83F0E0E0E012968D919C91139708
:105050000097B9F52D913C911197CD010296820FE1
:10506000931F2091E0053091E1052817390739F6A3
:10507000309751F51092E3051092E205B093E105E7
:10508000A093E005BCCFD383C28340815181840FBC
:10509000951FC817D90761F44E5F5F4F88819981CA
:1050A000480F591F518340838A819B819383828358
:1050B0002115310509F0B0CFF093E305E093E20547
:1050C0009ECFFD01DC01C0CF13821282D7CF6817BB
:1050D000790768F4FB01DC01E40FF51FA40FB51F8D
:1050E00002C002900E9241505040D8F708950C949F
:1050F0008028DC0101C06D9341505040E0F70895D5
:10510000FB01DC0102C001900D9241505040D8F7E4
:10511000089511E0C3EAD1E000E006C0802FFE014F
:105120000E942B272196011DC43AD10780E0080771
:06513000A9F7F894FFCF7F
:1051360000C0DEADBEEFFEED0000E405800000001D
:1051460040001400540001005E00000000044D51B0
:1051560054540400000000300A0114BF0A38023417
:1051660002F715BB11F716D312060F690AA31A7AAE
:105176000FE717D815B80AA80AA40AA00A00000063
:105186000029069305C0057606F105CF05E305005F
:1051960000000083075607BF0A38024F073C072D59
:1051A6000700000000010C9305BF0A460A00000034
:1051B60000B9089908BF0A460A00000000520A3BD7
:1051C60014F813E313FE142116CA111517161B3B08
:1051D60016410F1F0FD50ADD0AE31BD20AD00A4774
:1051E6000AC60ABC17A11B9117C20A00000000C319
:1051F6000C0D0A006E616E00696E66006F766600C1
:1052060062726F6B65722E686976656D712E636F5B
:105216006D0053797374656D20526561647900433E
:105226006F6E6E656374696E6720746F204D51549E
:10523600542E2E2E0041726475696E6F436C69653B
:105246006E7400436F6E6E6563746564210046611B
:10525600696C65642C2072633D002E205265747261
:1052660079696E6720696E2035207365636F6E6499
:10527600732E2E2E004661696C656420746F207251
:105286006561642066726F6D204448542073656EB4
:10529600736F722100536F696C3A20002500543AEF
:1052A600004320483A0049727269676174696F6EFB
:1052B600204F4E002F504C414E5400497272696780
:0A52C6006174696F6E204F464600C8
:00000001FF
